:020000040800F2
:1000000000280020DD0E0008710D0008770D0008A3
:100010007D0D0008830D0008890D00080000000018
:100020000000000000000000000000008F0D00082C
:100030009B0D000800000000A70D0008B30D00088C
:10004000250F0008250F0008250F0008250F0008C0
:10005000250F0008250F0008250F0008250F0008B0
:10006000250F0008250F0008250F0008250F0008A0
:10007000250F0008250F0008250F0008250F000890
:10008000250F0008250F0008250F0008250F000880
:10009000250F0008250F0008250F0008250F000870
:1000A000250F0008250F0008250F0008250F000860
:1000B000C10D0008250F000800000000250F0008F2
:1000C000250F00080000000000000000250F0008B8
:1000D00000000000250F0008250F000800000000A8
:1000E000250F0008250F0008250F0008000000005C
:1000F0000000000000000000000000000000000000
:0C01000000000000000000005FF808F1A3
:10010C0010B5054C237833B9044B13B10448AFF345
:10011C0000800123237010BD30000020000000007F
:10012C007C25000808B5034B1BB103490348AFF30A
:10013C00008008BD00000000340000207C25000871
:10014C0080B582B000AF78607B68092B00F28081AB
:10015C0001A252F823F000BF8D010008D501000860
:10016C001D02000865020008AD020008F502000837
:10017C003D03000885030008CD03000815040008A2
:10018C0000220221B44801F0CAF900220421B2482D
:10019C0001F0C5F900222021AF4801F0C0F901227D
:1001AC004021AD4801F0BBF900220121AA4801F021
:1001BC00B6F900220821A84801F0B1F9002210215B
:1001CC00A54801F0ACF943E100220221A24801F05C
:1001DC00A6F900220421A04801F0A1F90122202156
:1001EC009D4801F09CF9012240219B4801F097F9B0
:1001FC0001220121984801F092F901220821964828
:10020C0001F08DF901221021934801F088F91FE1CA
:10021C0000220221904801F082F9012204218E482B
:10022C0001F07DF9012220218B4801F078F90022A0
:10023C004021894801F073F900220121864801F020
:10024C006EF900220821844801F069F9002210217E
:10025C00814801F064F9FBE0002202217E4801F0A4
:10026C005EF9002204217C4801F059F90122202179
:10027C00794801F054F900224021774801F04FF9F8
:10028C0000220121744801F04AF900220821724829
:10029C0001F045F9012210216F4801F040F9D7E037
:1002AC00002202216C4801F03AF9002204216A482C
:1002BC0001F035F900222021674801F030F90022C5
:1002CC004021654801F02BF901220121624801F01F
:1002DC0026F901220821604801F021F901221021A0
:1002EC005D4801F01CF9B3E0002201215A4801F0ED
:1002FC0016F900220421584801F011F900220821B6
:10030C00554801F00CF900224021534801F007F93F
:10031C0000222021504801F002F9012202214E480E
:10032C0001F0FDF8012210214B4801F0F8F88FE0A4
:10033C0000220121484801F0F2F80122022146482E
:10034C0001F0EDF800220421434801F0E8F8002206
:10035C000821414801F0E3F8002210213E4801F049
:10036C00DEF8002220213C4801F0D9F8002240217F
:10037C00394801F0D4F86BE000220121364801F035
:10038C00CEF800220221344801F0C9F800220421E1
:10039C00314801F0C4F8012208212F4801F0BFF8C0
:1003AC00012210212C4801F0BAF8012220212A4800
:1003BC0001F0B5F801224021274801F0B0F847E0E0
:1003CC0000220121244801F0AAF80022022122482F
:1003DC0001F0A5F8002204211F4801F0A0F800222A
:1003EC0008211D4801F09BF8002210211A4801F049
:1003FC0096F800222021184801F091F800224021A3
:10040C00154801F08CF823E000220121124801F07C
:10041C0086F800220221104801F081F80022042104
:10042C000D4801F07CF8002208210B4801F077F808
:10043C0001221021084801F072F800222021064800
:10044C0001F06DF800224021034801F068F800BF6C
:10045C0000BF0837BD4680BD000C014080B582B09E
:10046C0000AF78607B68032B4AD801A252F823F0C6
:10047C008D040008AD040008CD040008ED0400084C
:10048C00224B1B681846FFF75BFE00221021204808
:10049C0001F045F80122E0211D4801F040F830E060
:1004AC00002220211A4801F03AF80122D0211848E4
:1004BC0001F035F8154B5B681846FFF741FE20E05C
:1004CC0000224021124801F02AF80122B0211048E4
:1004DC0001F025F80D4B9B681846FFF731FE10E034
:1004EC00002280210A4801F01AF8012270210848E4
:1004FC0001F015F8054BDB681846FFF721FE00E00C
:10050C0000BF00BF0837BD4680BD00BF50000020B3
:10051C000008014080B483B000AF786039607B681C
:10052C00184A82FB03129210DB17D31A164A136077
:10053C007968144B83FB01239A10CB17D21A1346FC
:10054C009B0013445B00CA1A0F4B5A603B680D4A60
:10055C0082FB03129210DB17D31A0B4A9360396893
:10056C00084B83FB01239A10CB17D21A13469B001E
:10057C0013445B00CA1A044BDA6000BF0C37BD464B
:10058C0080BC7047676666665000002080B500AF7F
:10059C004C4B1B68012B0CD14B4B1B68013B4A4A43
:1005AC0013604A4B1B68013B484A1360642000F0FF
:1005BC0039FC474B1A68474B9B68D31A642202FBE1
:1005CC0003F2454B1B689A420FD101224FF4806114
:1005DC00424800F0A4FF00224FF400713F4800F0A5
:1005EC009EFF3C4B5B68384A1360394B1A68394B99
:1005FC009B68D21A374B5B68D31A642202FB03F256
:10060C00354B1B689A4213D101224FF420613348B9
:10061C0000F085FF00224FF40451304800F07FFFBA
:10062C002C4B1B68284A13602A4B9B68274A136083
:10063C00274B1A68274B9B68D21A264B1B68D31A78
:10064C00642202FB03F2244B1B689A420FD1012255
:10065C004FF40051214800F062FF00224FF480510A
:10066C001E4800F05CFF1B4B5B68184A13601C4B68
:10067C001B68012B1BD101224FF48851174800F045
:10068C004EFF00224FF44061144800F048FF114B1C
:10069C009B680D4A13600F4B1B680C4A13600C4B84
:1006AC001B68642202FB03F3184600F0A7FB064B01
:1006BC001B68064A126811461846FFF72BFF00BF4D
:1006CC0080BD00BF88000020600000206400002076
:1006DC0018000020000000207C00002000080140D1
:1006EC008000002080B500AF634B1B78032B00F219
:1006FC00C18001A252F823F015070008E307000897
:10070C001D08000867080008002000F023F90346C4
:10071C00002B24D0584B01221A70584B1B68013304
:10072C00564A136001224FF47C51554800F0F7FEF5
:10073C00544B1B68002B07D0524B5B68002B03D02B
:10074C00504B9B68002B0AD14F4B00229A604E4BAA
:10075C009B684D4A53604C4B5B684B4A1360474B4C
:10076C001B68012B40F38380444B1B68042B7EDCFD
:10077C00012000F0EFF80346002B0CD03F4B1B6818
:10078C00023B414A52F8232001323F4941F82320D1
:10079C00394B02221A70022000F0DCF80346002BC1
:1007AC0065D0364B1B689A1E344B1B68023B36498E
:1007BC0051F82220334941F82320324B1A68314B2F
:1007CC005B681A442F4B9B681344304A13602A4BC6
:1007DC0003221A704BE0002000F0BCF80346002BFB
:1007EC0002D1254B00221A70244B1B68042B02DD0E
:1007FC00224B01221A60214B1B68023B224A52F801
:10080C0023301E4A126811461846FFF783FE31E06A
:10081C00012000F09FF80346002B02D1164B00225A
:10082C001A70164B1B68023B174A52F82330632B85
:10083C0006DD124B1B68023B134A012142F82310C0
:10084C000E4B1B68023B104A52F823300B4A1268BD
:10085C0011461846FFF75EFE0CE0022000F07AF815
:10086C000346002B05D1044B00221A7001E000BF97
:10087C0000E000BF00BF80BD680000201C0000200D
:10088C0000080140000000200C000020180000208F
:10089C0080B582B000AF00237B604BE0294A7B68B7
:1008AC0013441978284A7B6813440A461A707B68EB
:1008BC00002B0CD14FF48041244800F019FE034664
:1008CC001946204A7B6813440A461A701CE07B6860
:1008DC00012B0BD104211D4800F00AFE03461946DA
:1008EC00184A7B6813440A461A700DE07B68022B89
:1008FC000AD10821154800F0FBFD03461946114AA0
:10090C007B6813440A461A700E4A7B6813441A78A3
:10091C000D497B680B441B789A4208D1094A7B68C5
:10092C00134419780A4A7B6813440A461A707B6888
:10093C0001337B607B68022BB0DD00BF00BF083742
:10094C00BD4680BD6C0000207000002000080140F6
:10095C002000002080B483B000AF0346FB71FB790C
:10096C00022B01D9002307E0FB79064AD35C002B4C
:10097C000CBF01230023DBB218460C37BD4680BCEC
:10098C00704700BF2000002080B500AF00F0C6FA11
:10099C0000F054F800F0DAF800F08CF81E4801F082
:1009AC0027FA00224FF440611C4800F0B8FD1420D7
:1009BC0000F010FA1A4B1B68642202FB03F3184672
:1009CC0000F01CFA642000F02DFA164B9B68164AB6
:1009DC001360144B1B68154A1360154B1B68012BD5
:1009EC0011D1144B1B685A1C12490A601846FFF7A8
:1009FC0035FD104B1B68032B02DD0E4B00221A60D9
:100A0C00142000F0E7F9FFF76DFE0B4B1B6818463E
:100A1C0000F010F9E1E700BF8C0000200008014055
:100A2C00180000200000002060000020640000205E
:100A3C00780000204C0000201C00002080B590B0F5
:100A4C0000AF07F1180328220021184601F088FD99
:100A5C003B1D00221A605A609A60DA601A61022308
:100A6C00BB610123BB621023FB6200237B6307F194
:100A7C001803184600F084FD0346002B01D000F04B
:100A8C00D3F80F237B600023BB600023FB600023A3
:100A9C003B6100237B613B1D0021184600F0F0FFF9
:100AAC000346002B01D000F0BFF800BF4037BD4615
:100ABC0080BD000080B586B000AF07F108030022AE
:100ACC001A605A609A60DA603B4600221A605A60DB
:100ADC001D4B4FF080421A601B4B41F63F725A601F
:100AEC00194B00229A60184B0922DA60164B00222F
:100AFC001A61154B00229A61134801F029F903463B
:100B0C00002B01D000F090F84FF48053BB6007F13C
:100B1C00080319460C4801F0BFFA0346002B01D01C
:100B2C0000F082F800233B6000237B603B461946B3
:100B3C00054801F087FC0346002B01D000F074F847
:100B4C0000BF1837BD4680BD8C00002080B586B034
:100B5C0000AF07F1080300221A605A609A60DA604D
:100B6C00284B9B69274A43F004039361254B9B69EF
:100B7C0003F004037B607B68224B9B69214A43F0A2
:100B8C00080393611F4B9B6903F008033B603B68B0
:100B9C00012243F6F0711C4800F0C1FC00227F21B9
:100BAC001A4800F0BCFC44F20C03BB600023FB6051
:100BBC0001233B6107F108031946134800F01EFBA3
:100BCC0043F6F073BB600123FB6000233B610223FF
:100BDC007B6107F1080319460B4800F00FFB7F23DC
:100BEC00BB600123FB6000233B6102237B6107F1A7
:100BFC0008031946054800F001FB00BF1837BD4635
:100C0C0080BD00BF0010024000080140000C0140F4
:100C1C0080B582B000AF786000F018F9FFF738FEAD
:100C2C0000BF0837BD4680BD80B400AF72B600BFB0
:100C3C00FEE7000080B582B000AF78607B68013BB6
:100C4C00032B31D801A252F823F000BF690C000825
:100C5C006F0C0008830C0008970C0008FFF796FC3B
:100C6C0022E0134B1B68012B19D14FF41061114872
:100C7C0000F06DFC13E00E4B1B68012B11D14FF4EF
:100C8C0090510C4800F063FC0BE0094B1B68012BE6
:100C9C0009D14FF41051074800F059FC03E000BF94
:100CAC0002E000BF00E000BF00BF0837BD4680BDBA
:100CBC00780000200008014080B485B000AF154BCF
:100CCC009B69144A43F001039361124B9B6903F037
:100CDC000103BB60BB680F4BDB690E4A43F08053CA
:100CEC00D3610C4BDB6903F080537B607B680A4B50
:100CFC005B68FB60FB6823F0E063FB60FB6843F020
:100D0C008063FB60044AFB68536000BF1437BD4628
:100D1C0080BC7047001002400000014080B584B0D8
:100D2C0000AF78607B681B68B3F1804F13D10C4B1C
:100D3C00DB690B4A43F00103D361094BDB6903F018
:100D4C000103FB60FB68002200211C2000F01FFA4D
:100D5C001C2000F038FA00BF1037BD4680BD00BF24
:100D6C000010024080B400AFFEE780B400AFFEE795
:100D7C0080B400AFFEE780B400AFFEE780B400AFF4
:100D8C00FEE780B400AF00BFBD4680BC704780B4A6
:100D9C0000AF00BFBD4680BC704780B400AF00BF41
:100DAC00BD4680BC704780B500AF00F0FDF800BFB9
:100DBC0080BD000080B500AF024801F065F800BFAF
:100DCC0080BD00BF8C00002080B400AF00BFBD46CA
:100DDC0080BC704780B483B000AF7860054A7B68F4
:100DEC001360054B00221A6000BF0C37BD4680BC57
:100DFC00704700BF740000207800002080B483B0DE
:100E0C0000AF7860054A7B681360054B00221A60BE
:100E1C0000BF0C37BD4680BC704700BF7C00002073
:100E2C008000002080B483B000AF7860054A7B68F6
:100E3C001360054B00221A6000BF0C37BD4680BC06
:100E4C00704700BF840000208800002080B400AFF1
:100E5C00194B1B68002B0BDD174B1B68013B164A0B
:100E6C001360154B1B68002B02D1144B01221A6026
:100E7C00134B1B68002B0BDD114B1B68013B104AFD
:100E8C0013600F4B1B68002B02D10E4B01221A6012
:100E9C000D4B1B68002B0BDD0B4B1B68013B0A4AEF
:100EAC001360094B1B68002B02D1084B01221A60FE
:100EBC0000BFBD4680BC7047740000207800002045
:100ECC007C0000208000002084000020880000208E
:100EDC000C480D490D4A002302E0D458C450043389
:100EEC00C4188C42F9D30A4A0A4C002301E013605F
:100EFC000432A242FBD3FFF767FF01F00DFBFFF7B3
:100F0C0043FD70470000002030000020BC25000885
:100F1C0030000020D8000020FEE7000080B500AFB4
:100F2C00084B1B68074A43F010031360032000F0C2
:100F3C0023F90F2000F008F8FFF7BEFE0023184637
:100F4C0080BD00BF0020024080B582B000AF786049
:100F5C00124B1A68124B1B7819464FF47A73B3FB79
:100F6C00F1F3B2FBF3F3184600F03BF90346002B08
:100F7C0001D001230EE07B680F2B0AD80022796880
:100F8C004FF0FF3000F003F9064A7B681360002332
:100F9C0000E0012318460837BD4680BD2400002020
:100FAC002C0000202800002080B400AF054B1B78DB
:100FBC001A46054B1B681344034A136000BFBD4619
:100FCC0080BC70472C000020D400002080B400AFFF
:100FDC00024B1B681846BD4680BC7047D4000020ED
:100FEC0080B485B000AF78607B6803F00703FB60CA
:100FFC000C4BDB68BB60BA684FF6FF031340BB6059
:10100C00FB681A02BB68134343F0BF6343F400331D
:10101C00BB60044ABB68D36000BF1437BD4680BCBC
:10102C00704700BF00ED00E080B400AF044BDB68FC
:10103C001B0A03F007031846BD4680BC704700BF6F
:10104C0000ED00E080B483B000AF0346FB7197F96C
:10105C000730002B0BDBFB7903F01F02064997F9D5
:10106C0007305B09012000FA02F241F8232000BF8F
:10107C000C37BD4680BC704700E100E080B483B003
:10108C0000AF03463960FB7197F90730002B0ADB80
:10109C003B68DAB20C4997F907301201D2B20B4413
:1010AC0083F800230AE03B68DAB20849FB7903F0C5
:1010BC000F03043B1201D2B20B441A7600BF0C375B
:1010CC00BD4680BC704700BF00E100E000ED00E0D1
:1010DC0080B489B000AFF860B9607A60FB6803F047
:1010EC000703FB61FB69C3F10703042B28BF04232F
:1010FC00BB61FB690433062B02D9FB69033B00E09F
:10110C0000237B614FF0FF32BB6902FA03F3DA4331
:10111C00BB681A407B699A404FF0FF317B6901FA3A
:10112C0003F3D9437B680B40134318462437BD4661
:10113C0080BC704780B582B000AF78607B68013BA3
:10114C00B3F1807F01D301230FE00A4A7B68013B96
:10115C0053600F214FF0FF30FFF790FF054B00223B
:10116C009A60044B07221A60002318460837BD46C4
:10117C0080BD00BF10E000E080B582B000AF7860A9
:10118C007868FFF72DFF00BF0837BD4680BD80B5DE
:10119C0086B000AF0346B9607A60FB7300237B61B5
:1011AC00FFF742FF78617A68B9687869FFF790FFBA
:1011BC00024697F90F3011461846FFF75FFF00BF44
:1011CC001837BD4680BD80B582B000AF0346FB71B9
:1011DC0097F907301846FFF735FF00BF0837BD46B3
:1011EC0080BD80B582B000AF78607868FFF7A2FF51
:1011FC00034618460837BD4680BD000080B48BB04E
:10120C0000AF7860396000237B6200233B6248E1C9
:10121C0001227B6A02FA03F3FB613B681B68FA69E3
:10122C001340BB61BA69FB699A4240F037813B6855
:10123C005B68A34A93425ED0A14A934275D8A14AF7
:10124C00934258D09F4A93426FD89F4A934252D0B0
:10125C009D4A934269D89D4A93424CD09B4A9342F3
:10126C0063D89B4A934246D0994A93425DD8122B3D
:10127C002AD8122B59D801A252F823F003130008D4
:10128C00DD120008EF1200083113000837130008B4
:10129C0037130008371300083713000837130008FA
:1012AC0037130008371300083713000837130008EA
:1012BC0037130008371300083713000837130008DA
:1012CC00E5120008F9120008824A934213D02CE070
:1012DC003B68DB683B6229E03B68DB6804333B62BC
:1012EC0024E03B68DB6808333B621FE03B68DB684B
:1012FC000C333B621AE03B689B68002B02D1042341
:10130C003B6213E03B689B68012B05D108233B62D1
:10131C007B68FA691A6109E008233B627B68FA6909
:10132C005A6103E000233B6200E000BFBB69FF2B66
:10133C0001D87B6801E07B6804337B61BB69FF2BC0
:10134C0002D87B6A9B0002E07B6A083B9B003B61F6
:10135C007B691A680F213B6901FA03F3DB431A40DE
:10136C00396A3B6901FA03F31A437B691A603B68DB
:10137C005B6803F08053002B00F09080564B9B6908
:10138C00554A43F001039361534B9B6903F00103EE
:10139C00BB60BB68514A7B6A9B08023352F823300E
:1013AC00FB607B6A03F003039B000F2202FA03F33A
:1013BC00DB43FA681340FB607B68494A93420DD0CB
:1013CC007B68484A934207D07B68474A934201D1D5
:1013DC00022304E0032302E0012300E000237A6AE5
:1013EC0002F0030292009340FA681343FB603B49FE
:1013FC007B6A9B080233FA6841F823203B685B68E0
:10140C0003F48033002B06D0384B1A683749BB697C
:10141C0013430B6006E0354B1A68BB69DB43334959
:10142C0013400B603B685B6803F40033002B06D061
:10143C002E4B5A682D49BB6913434B6006E02B4B6E
:10144C005A68BB69DB43294913404B603B685B68B6
:10145C0003F48013002B06D0244B9A682349BB69F4
:10146C0013438B6006E0214B9A68BB69DB431F4931
:10147C0013408B603B685B6803F40013002B06D0B1
:10148C001A4BDA681949BB691343CB6006E0174B5A
:10149C00DA68BB69DB4315491340CB607B6A0133C7
:1014AC007B623B681A687B6A22FA03F3002B7FF499
:1014BC00AFAE00BF00BF2C37BD4680BC704700BF2D
:1014CC00000032100000311000002210000021102A
:1014DC00000012100000111000100240000001402A
:1014EC0000080140000C01400010014000040140C4
:1014FC0080B485B000AF78600B467B807B689A68BF
:10150C007B881340002B02D00123FB7301E00023E6
:10151C00FB73FB7B18461437BD4680BC704780B408
:10152C0083B000AF78600B467B8013467B707B7872
:10153C00002B03D07A887B681A6103E07B881A043D
:10154C007B681A6100BF0C37BD4680BC704780B405
:10155C0085B000AF78600B467B807B68DB68FB60F6
:10156C007A88FB6813401A04FB68D9437B880B40CC
:10157C001A437B681A6100BF1437BD4680BC7047A4
:10158C0080B586B000AF78607B68002B01D1012359
:10159C006CE27B681B6803F00103002B00F0878072
:1015AC00924B5B6803F00C03042B0CD08F4B5B68E5
:1015BC0003F00C03082B12D18C4B5B6803F48033C3
:1015CC00B3F5803F0BD1894B1B6803F40033002B20
:1015DC006CD07B685B68002B68D1012346E27B688A
:1015EC005B68B3F5803F06D1804B1B687F4A43F4A0
:1015FC00803313602EE07B685B68002B0CD17B4B37
:10160C001B687A4A23F480331360784B1B68774A43
:10161C0023F4802313601DE07B685B68B3F5A02F77
:10162C000CD1724B1B68714A43F4802313606F4BCF
:10163C001B686E4A43F4803313600BE06B4B1B68E2
:10164C006A4A23F480331360684B1B68674A23F49F
:10165C00802313607B685B68002B13D0FFF7B6FC0C
:10166C00386108E0FFF7B2FC02463B69D31A642BE1
:10167C0001D90323FAE15D4B1B6803F40033002B03
:10168C00F0D014E0FFF7A2FC386108E0FFF79EFCF5
:10169C0002463B69D31A642B01D90323E6E1534B71
:1016AC001B6803F40033002BF0D100E000BF7B6813
:1016BC001B6803F00203002B63D04C4B5B6803F0F8
:1016CC000C03002B0BD0494B5B6803F00C03082B6D
:1016DC001CD1464B5B6803F48033002B16D1434B73
:1016EC001B6803F00203002B05D07B681B69012BE0
:1016FC0001D00123BAE13D4B1B6823F0F8027B6853
:10170C005B69DB00394913430B603AE07B681B696A
:10171C00002B20D0364B01221A60FFF757FC3861A2
:10172C0008E0FFF753FC02463B69D31A022B01D9A0
:10173C0003239BE12D4B1B6803F00203002BF0D01D
:10174C002A4B1B6823F0F8027B685B69DB00274996
:10175C0013430B6015E0264B00221A60FFF736FC92
:10176C00386108E0FFF732FC02463B69D31A022BC2
:10177C0001D903237AE11D4B1B6803F00203002BF4
:10178C00F0D17B681B6803F00803002B3AD07B6810
:10179C009B69002B19D0174B01221A60FFF716FC1E
:1017AC00386108E0FFF712FC02463B69D31A022BA2
:1017BC0001D903235AE10D4B5B6A03F00203002BA2
:1017CC00F0D0012000F0A6FA1CE00A4B00221A60AF
:1017DC00FFF7FCFB38610FE0FFF7F8FB02463B69B3
:1017EC00D31A022B08D9032340E100BF001002409A
:1017FC0000004242800442429E4B5B6A03F00203AB
:10180C00002BE9D17B681B6803F00403002B00F06C
:10181C00A6800023FB75974BDB6903F08053002BEC
:10182C000DD1944BDB69934A43F08053D361914BB8
:10183C00DB6903F08053BB60BB680123FB758E4BE7
:10184C001B6803F48073002B18D18B4B1B688A4ADE
:10185C0043F480731360FFF7B9FB386108E0FFF7BE
:10186C00B5FB02463B69D31A642B01D90323FDE077
:10187C00814B1B6803F48073002BF0D07B68DB6812
:10188C00012B06D17B4B1B6A7A4A43F0010313628E
:10189C002DE07B68DB68002B0CD1764B1B6A754AFC
:1018AC0023F001031362734B1B6A724A23F0040387
:1018BC0013621CE07B68DB68052B0CD16D4B1B6A3B
:1018CC006C4A43F0040313626A4B1B6A694A43F087
:1018DC00010313620BE0674B1B6A664A23F001039A
:1018EC001362644B1B6A634A23F0040313627B6824
:1018FC00DB68002B15D0FFF769FB38610AE0FFF7B6
:10190C0065FB02463B69D31A41F28832934201D9F6
:10191C000323ABE0574B1B6A03F00203002BEED002
:10192C0014E0FFF753FB38610AE0FFF74FFB024668
:10193C003B69D31A41F28832934201D9032395E0D3
:10194C004C4B1B6A03F00203002BEED1FB7D012BE9
:10195C0005D1484BDB69474A23F08053D3617B6840
:10196C00DB69002B00F08180424B5B6803F00C03B9
:10197C00082B61D07B68DB69022B46D13F4B0022E0
:10198C001A60FFF723FB386108E0FFF71FFB0246E4
:10199C003B69D31A022B01D9032367E0354B1B6833
:1019AC0003F00073002BF0D17B681B6AB3F5803F0A
:1019BC0008D1304B5B6823F400327B689B682D495F
:1019CC0013434B602B4B5B6823F474127B68196ACE
:1019DC007B685B6A0B43274913434B60274B0122FF
:1019EC001A60FFF7F3FA386108E0FFF7EFFA0246E6
:1019FC003B69D31A022B01D9032337E01D4B1B681B
:101A0C0003F00073002BF0D02FE01C4B00221A6067
:101A1C00FFF7DCFA386108E0FFF7D8FA02463B69B9
:101A2C00D31A022B01D9032320E0124B1B6803F0BD
:101A3C000073002BF0D118E07B68DB69012B01D11E
:101A4C00012313E00B4B5B68FB60FB6803F48032F3
:101A5C007B681B6A9A4206D1FB6803F470127B68A0
:101A6C005B6A9A4201D0012300E000231846183724
:101A7C00BD4680BD00100240007000406000424234
:101A8C0080B584B000AF786039607B68002B01D1E1
:101A9C000123D0E06A4B1B6803F007033A689A42B3
:101AAC0010D9674B1B6823F0070265493B68134349
:101ABC000B60634B1B6803F007033A689A4201D032
:101ACC000123B8E07B681B6803F00203002B20D0D5
:101ADC007B681B6803F00403002B05D0594B5B6833
:101AEC00584A43F4E06353607B681B6803F00803B7
:101AFC00002B05D0534B5B68524A43F46053536040
:101B0C00504B5B6823F0F0027B689B684D49134394
:101B1C004B607B681B6803F00103002B40D07B6893
:101B2C005B68012B07D1474B1B6803F40033002B78
:101B3C0015D101237FE07B685B68022B07D1414BF9
:101B4C001B6803F00073002B09D1012373E03D4B9C
:101B5C001B6803F00203002B01D101236BE0394B0E
:101B6C005B6823F003027B685B68364913434B6068
:101B7C00FFF72CFAF8600AE0FFF728FA0246FB6838
:101B8C00D31A41F28832934201D9032353E02D4BEF
:101B9C005B6803F00C027B685B689B009A42EBD19C
:101BAC00274B1B6803F007033A689A4210D2244B68
:101BBC001B6823F0070222493B6813430B60204B40
:101BCC001B6803F007033A689A4201D0012332E004
:101BDC007B681B6803F00403002B08D0194B5B686F
:101BEC0023F4E0627B68DB68164913434B607B6827
:101BFC001B6803F00803002B09D0124B5B6823F41D
:101C0C0060527B681B69DB000E4913434B6000F08C
:101C1C0021F802460B4B5B681B0903F00F030A49C2
:101C2C00CB5C22FA03F3094A1360094B1B68184674
:101C3C00FFF78AF9002318461037BD4680BD00BF58
:101C4C000020024000100240A425000824000020BF
:101C5C002800002090B48AB000AF2A4B3C1D0FCB5B
:101C6C0084E80F0040F201233B800023FB6100233A
:101C7C00BB6100237B6200237B6100233B62224B10
:101C8C005B68FB61FB6903F00C03042B02D0082B8F
:101C9C0003D02DE01D4B3B622DE0FB699B0C03F048
:101CAC000F0307F12802134413F8243C7B61FB69F2
:101CBC0003F48033002B13D0134B5B685B0C03F0E5
:101CCC00010307F12802134413F8283CBB617B691C
:101CDC000E4A02FB03F2BB69B2FBF3F37B6204E036
:101CEC007B690B4A02FB03F37B627B6A3B6202E07B
:101CFC00064B3B6200BF3B6A18462837BD4690BC7A
:101D0C00704700BF942500080010024000127A00B2
:101D1C0000093D0080B485B000AF78600A4B1B68A9
:101D2C000A4AA2FB03235B0A7A6802FB03F3FB60FB
:101D3C0000BFFB685A1EFA60002BF9D100BF00BF30
:101D4C001437BD4680BC704724000020D34D621070
:101D5C0080B582B000AF78607B68002B01D1012385
:101D6C0041E07B6893F83D30DBB2002B06D17B68F9
:101D7C00002283F83C207868FEF7D0FF7B680222B3
:101D8C0083F83D207B681A687B680433194610463B
:101D9C0000F06AFA7B68012283F846207B680122F6
:101DAC0083F83E207B68012283F83F207B68012268
:101DBC0083F840207B68012283F841207B68012254
:101DCC0083F842207B68012283F843207B68012240
:101DDC0083F844207B68012283F845207B6801222C
:101DEC0083F83D20002318460837BD4680BD00000F
:101DFC0080B485B000AF78607B6893F83D30DBB27F
:101E0C00012B01D0012335E07B68022283F83D20B1
:101E1C007B681B68DA687B681B6842F00102DA6039
:101E2C007B681B68164A934209D07B681B68B3F128
:101E3C00804F04D07B681B68124A934211D17B6897
:101E4C001B689B6803F00703FB60FB68062B10D034
:101E5C007B681B681A687B681B6842F001021A6079
:101E6C0007E07B681B681A687B681B6842F00102FC
:101E7C001A60002318461437BD4680BC704700BF5B
:101E8C00002C01400004004080B582B000AF7860A7
:101E9C007B681B681B6903F00203022B22D17B6851
:101EAC001B68DB6803F00203022B1BD17B681B68E9
:101EBC006FF002021A617B6801221A777B681B683B
:101ECC009B6903F00303002B03D0786800F0B1F991
:101EDC0005E0786800F0A4F9786800F0B3F97B6845
:101EEC0000221A777B681B681B6903F00403042B20
:101EFC0022D17B681B68DB6803F00403042B1BD125
:101F0C007B681B686FF004021A617B6802221A77E7
:101F1C007B681B689B6903F44073002B03D07868C3
:101F2C0000F087F905E0786800F07AF9786800F03D
:101F3C0089F97B6800221A777B681B681B6903F0A0
:101F4C000803082B22D17B681B68DB6803F00803AD
:101F5C00082B1BD17B681B686FF008021A617B6829
:101F6C0004221A777B681B68DB6903F00303002BE0
:101F7C0003D0786800F05DF905E0786800F050F95E
:101F8C00786800F05FF97B6800221A777B681B6821
:101F9C001B6903F01003102B22D17B681B68DB68D4
:101FAC0003F01003102B1BD17B681B686FF0100221
:101FBC001A617B6808221A777B681B68DB6903F45B
:101FCC004073002B03D0786800F033F905E0786893
:101FDC0000F026F9786800F035F97B6800221A7752
:101FEC007B681B681B6903F00103012B0ED17B6816
:101FFC001B68DB6803F00103012B07D17B681B68AE
:10200C006FF001021A617868FEF702FE7B681B68AC
:10201C001B6903F08003802B0ED17B681B68DB6887
:10202C0003F08003802B07D17B681B686FF0800264
:10203C001A61786800F067FA7B681B681B6903F00B
:10204C004003402B0ED17B681B68DB6803F0400318
:10205C00402B07D17B681B686FF040021A617868CF
:10206C0000F0F9F87B681B681B6903F02003202B38
:10207C000ED17B681B68DB6803F02003202B07D193
:10208C007B681B686FF020021A61786800F032FAE6
:10209C0000BF0837BD4680BD80B584B000AF786006
:1020AC0039607B6893F83C30012B01D10223B3E0FB
:1020BC007B68012283F83C207B68022283F83D2058
:1020CC007B681B689B68FB60FB6823F07703FB60F5
:1020DC00FB6823F47F43FB607B681B68FA689A609B
:1020EC003B681B68B3F5005F3ED0B3F5005F00F2B0
:1020FC008780B3F5805F00F08580B3F5805F7FD873
:10210C00702B1AD0702B7BD8602B50D0602B77D8CB
:10211C00502B3CD0502B73D8402B58D0402B6FD821
:10212C00302B64D0302B6BD8202B60D0202B67D871
:10213C00002B5CD0102B5AD062E07B6818683B688F
:10214C0099683B685A683B68DB6800F05CF97B680F
:10215C001B689B68FB60FB6843F07703FB607B6844
:10216C001B68FA689A604EE07B6818683B6899684F
:10217C003B685A683B68DB6800F045F97B681B6874
:10218C009A687B681B6842F480429A603BE07B68EB
:10219C0018683B6859683B68DB681A4600F0BCF865
:1021AC007B681B685021184600F013F92BE07B6804
:1021BC0018683B6859683B68DB681A4600F0DAF827
:1021CC007B681B686021184600F003F91BE07B68F4
:1021DC0018683B6859683B68DB681A4600F09CF845
:1021EC007B681B684021184600F0F3F80BE07B6815
:1021FC001A683B681B681946104600F0EAF802E0C2
:10220C0000BF00E000BF7B68012283F83D207B68A3
:10221C00002283F83C20002318461037BD4680BDB1
:10222C0080B483B000AF786000BF0C37BD4680BC73
:10223C00704780B483B000AF786000BF0C37BD46E8
:10224C0080BC704780B483B000AF786000BF0C379F
:10225C00BD4680BC704780B483B000AF786000BFCF
:10226C000C37BD4680BC704780B485B000AF786039
:10227C0039607B681B68FB607B68254A934207D0FA
:10228C007B68B3F1804F03D07B68224A934208D11C
:10229C00FB6823F07003FB603B685B68FA681343D0
:1022AC00FB607B681A4A934207D07B68B3F1804F7E
:1022BC0003D07B68174A934208D1FB6823F4407320
:1022CC00FB603B68DB68FA681343FB60FB6823F038
:1022DC0080023B685B691343FB607B68FA681A6099
:1022EC003B689A687B68DA623B681A687B689A621A
:1022FC007B68074A934203D13B681A697B681A636F
:10230C007B6801225A6100BF1437BD4680BC704700
:10231C00002C01400004004080B487B000AFF8608E
:10232C00B9607A60FB681B6A7B61FB681B6A23F0EF
:10233C000102FB681A62FB689B693B613B6923F0F5
:10234C00F0033B617B681B013A6913433B617B697A
:10235C0023F00A037B617A69BB6813437B61FB68DA
:10236C003A699A61FB687A691A6200BF1C37BD46EC
:10237C0080BC704780B487B000AFF860B9607A60F9
:10238C00FB681B6A23F01002FB681A62FB689B69EE
:10239C007B61FB681B6A3B617B6923F470437B6147
:1023AC007B681B037A6913437B613B6923F0A003B1
:1023BC003B61BB681B013A6913433B61FB687A695B
:1023CC009A61FB683A691A6200BF1C37BD4680BC33
:1023DC00704780B485B000AF786039607B689B68CB
:1023EC00FB60FB6823F07003FB603A68FB681343E7
:1023FC0043F00703FB607B68FA689A6000BF1437F0
:10240C00BD4680BC704780B487B000AFF860B9603F
:10241C007A603B60FB689B687B617B6923F47F433C
:10242C007B613B681A027B681A43BB6813437A6969
:10243C0013437B61FB687A699A6000BF1C37BD4609
:10244C0080BC704780B485B000AF786039607B6821
:10245C0093F83C30012B01D1022341E07B6801222F
:10246C0083F83C207B68022283F83D207B681B6844
:10247C005B68FB607B681B689B68BB60FB6823F038
:10248C007003FB603B681B68FA681343FB607B6856
:10249C001B68FA685A607B681B68144A934209D01F
:1024AC007B681B68B3F1804F04D07B681B68104AB3
:1024BC0093420CD1BB6823F08003BB603B685B6824
:1024CC00BA681343BB607B681B68BA689A607B6808
:1024DC00012283F83D207B68002283F83C200023F6
:1024EC0018461437BD4680BC704700BF002C014015
:1024FC000004004080B483B000AF786000BF0C379C
:10250C00BD4680BC704780B483B000AF786000BF1C
:10251C000C37BD4680BC704770B500260C4D0D4C79
:10252C00641BA410A64209D100F022F800260A4D23
:10253C000A4C641BA410A64205D170BD55F8043B8F
:10254C0098470136EEE755F8043B98470136F2E719
:10255C00B4250008B4250008B4250008B8250008E7
:10256C0003460244934200D1704703F8011BF9E77C
:10257C00F8B500BFF8BC08BC9E467047F8B500BF64
:08258C00F8BC08BC9E46704734
:1025940002030405060708090A0B0C0D0E0F1010A0
:1025A40000000000000000000102030406070809FF
:0425B40031010008E9
:0425B8000D01000809
:1025BC000500000002000000030000000500000000
:1025CC0002000000030000000A00000001000000EF
:1025DC00010101000024F4001000000001000000C3
:0400000508000EDD04
:00000001FF
